:020000040000FA
:0600000048EF05F01200BC
:02002A000000D4
:04002C00696A686A2B
:10003000140E6F6E080E6D6E00016D6B766B010E07
:100040006E6F6F696DBAFED71200D9CFE6FFE1CFB0
:10005000D9FF020EE12668A202D06A6A85D068AC98
:1000600002D0689C81D068A803D068986D827CD04B
:1000700068A403D068946D9277D068AA02D0689A79
:1000800073D068A02FD000016D6B68966896689653
:100090006896706A716A726A736A746A756A766A57
:1000A000776A786A796A7A6A7B6A7C6A7D6A7E6A2C
:1000B0007F6A0401400E016F800E026F040E036F11
:1000C000880E006FC00E066F040E076F080E046FD7
:1000D0006E6A686A160E706E6B680001010E766FAC
:1000E0006E6F42D068A640D07C0E6C14016A000F7F
:1000F000006E040E012200C0DEFF01C0DDFFDECF76
:10010000E9FFDDCFEAFFEFCF60F0DECFE9FFDDCF23
:10011000EAFFEE52EFCF61F0DECFE9FFDDCFEAFF7D
:10012000020EE926000EEA22EECF62F0EDCF63F078
:100130006CCF75F0689600016C6B3C0E6015040A7C
:1001400009E0200A05E0100A01E005D017D803D025
:100150007FDB01D09EDB00016CA106D00401400EC4
:10016000016F840E046F006F020EE15C02E2E16A2F
:10017000E552E16EE552E7CFD9FF1200D9CFE6FF95
:10018000E1CFD9FFE652DF6A080EDF5C14E2DF50F0
:100190000001EA6A6225E96E6351EA22EF50E66ED9
:1001A000DF50EA6A640FE96E000EEA22E552E7507A
:1001B000EF6EDF2AE9D70401400E016F080E046FCD
:1001C000800E0001641504E16A5104E16B5102E103
:1001D000000E01D0010E000902E0C80E01D0880E09
:1001E0000401006F6D9800016F69600E6415400A8C
:1001F00009E0600A05E0200A01E006D00BD805D02E
:100200006ADA03D06DDA01D06C81E552E552E7CFAE
:10021000D9FF1200D9CFE6FFE1CFD9FF050EE126C5
:1002200000016551070A01E14BD20B0A01E148D2F6
:10023000070A01E130D2010A01E117D2030A01E104
:10024000F1D1010A01E1E2D10E0A01E178D1030AFC
:1002500001E167D1040A01E1C7D0020A01E1C4D07B
:10026000030A01E02DD21F0E6415020A37E0030ACB
:1002700016E0010A01E0B6D006C4E9FF07C4EAFFB0
:100280006EC0EFFF010E0401EA6A0625E96E075110
:10029000EA22EF6A020E056FC80E046FA4D07651F1
:1002A000030A05E0010A01E018D06C8116D0010EA6
:1002B000685D12E206C4E9FF07C4EAFFEF6A010EB7
:1002C0000401EA6A0625E96E0751EA22EF6A020E86
:1002D000056FC80E046F01D06C8185D07651030A7A
:1002E00025E0010A01E07CD00F0E68151DE1800EAB
:1002F000681503E00401045102D004010051040B0D
:10030000E840E8403F0B06C4E9FF07C4EAFFEF6E90
:10031000010EEA6A0625E96E0751EA22EF6A020E2B
:10032000056FC80E046F01D06C815BD0700EDE6E5D
:100330000F0EDD6E0F0E6815E76E020EE7CFDBFFC6
:10034000800E681502E0010E01D0000E026E020E52
:10035000DB50E8240210040DF3CF00F0F4CF01F0DD
:10036000000E0026040E0122030E00C0DBFF040E67
:1003700001C0DBFF800E681502E0020E01D0040E02
:10038000006E020EDB50E76E000EDFCFE9FF010EBC
:10039000DBCFEAFFE750E926000EEA22EF50001417
:1003A0001DE0030EDBCFE9FF040EDBCFEAFFEF50C9
:1003B000040BE840E8403F0B06C4E9FF07C4EAFF2E
:1003C000EF6E010E0401EA6A0625E96E0751EA2282
:1003D000EF6A020E056FC80E046F01D06C8101D068
:1003E0006C8101D06C816DD11F0E6415020A13E07F
:1003F000020A01E094D06651010A01E00AD06505C5
:1004000002E16E9101D06E810401056BC80E046F8C
:1004100001D06C8185D07651030A0DE0010A01E01C
:100420007CD00F0E681505E10401056BC80E046F42
:1004300001D06C8173D0700EDE6E0F0EDD6E0F0E6C
:100440006815E76E020EE7CFDBFFDB505FE0800E42
:10045000681502E0010E01D0000E026E020EDB50A4
:10046000E8240210040DF3CF00F0F4CF01F0000EE9
:100470000026040E0122030E00C0DBFF040E01C0A3
:10048000DBFF68AF22D0020EDB50E76E000EDFCF3D
:10049000E9FF010EDBCFEAFFE750E926000EEA2272
:1004A000EF50020B10E0650502E1000E01D0840E52
:1004B000E66E030EDBCFE9FF040EDBCFEAFFE55269
:1004C000E750EF6E01D06C8121D0020EDB50E76E59
:1004D000000EDFCFE9FF010EDBCFEAFFE750E92690
:1004E000000EEA22EF50040B10E0650502E1880ED1
:1004F00001D0840EE66E030EDBCFE9FF040EDBCFE6
:10050000EAFFE552E750EF6E01D06C816CB104D088
:100510000401056BC80E046F01D06C8101D06C81A1
:10052000D0D066517F0802E26C8108D0050E6F6F53
:1005300066C070F00401056BC80E046FC2D0060ED1
:100540006F6F6751030A36E0010A17E0030A01E002
:100550005BD0240E716F0A0E726F71C0F6FF72C00D
:10056000F7FF0800F5CF73F06B5105E173516A5D39
:1005700002E26AC073F0A3D948D0665101E005D009
:10058000360E716F0A0E726F01D06C816CB111D092
:10059000020EF76A7125F66E7251F7220800F5CF48
:1005A00073F06B5105E173516A5D02E26AC073F04A
:1005B00086D92BD06651020A0FE0030A08E0010A2F
:1005C00001E00FD0480E716F0A0E726F0BD04C0E07
:1005D000716F0A0E726F06D0660E716F0A0E726F1F
:1005E00001D06C816CB10FD071C0F6FF72C0F7FF03
:1005F0000800F5CF73F06B5105E173516A5D02E2BB
:100600006AC073F05CD901D06C815BD006C4E9FF8D
:1006100007C4EAFF6DC0EFFF0401010E056FC80EAD
:10062000046F4FD0665101081EE3716A726A736AE3
:10063000746A756A766A776A786A796A7A6A7B6AAE
:100640007C6A7D6A7E6A7F6A66C06DF0665101E0F1
:1006500003D0020E766F02D0030E766F0401056B95
:10066000C80E046F01D06C812CD07651030A01E0D2
:1006700010D0010E685D0BE206C4E9FF07C4EAFF73
:10068000EF6A0401010E056FC80E046F01D06C8182
:1006900001D06C8116D07651030A01E00FD0010E13
:1006A000685D0AE2665101E005D00401056BC80EE1
:1006B000046F01D06C8101D06C8101D06C8101D0BC
:1006C0006C81050EE15C02E2E16AE552E16EE55201
:1006D000E7CFD9FF12000001655100D06C811200F4
:1006E000D9CFE6FFE1CFD9FFE65200016551020AFA
:1006F00001E19CD0030A01E0A5D066C077F067C095
:1007000078F0030EC26EC2B2FED7C35006C4E9FF32
:1007100007C4EAFFEF6E010E0401EA6A0625E96EDE
:100720000751EA22C4CFEFFF070EC26EC2B2FED756
:10073000020E0401EA6A0625E96E0751EA22C3CFD8
:10074000EFFF030EEA6A0625E96E0751EA22C4CFDD
:10075000EFFF0B0EC26EC2B2FED7040E0401EA6AAE
:100760000625E96E0751EA22C3CFEFFF050EEA6ABC
:100770000625E96E0751EA22C4CFEFFF130EC26EC1
:10078000C2B2FED7060E0401EA6A0625E96E0751D9
:10079000EA22C3CFEFFF070EEA6A0625E96E07518A
:1007A000EA22C4CFEFFF080EEA6A0625E96E075178
:1007B000EA22B2CFEFFF090EEA6A0625E96E075179
:1007C000EA22B3CFEFFFA1A206D000017B2B7B5121
:1007D00001E17C2BA1920A0E0401EA6A0625E96E6A
:1007E0000751EA227BC0EFFF0B0EEA6A0625E96E8D
:1007F0000751EA227CC0EFFF0C0E056FC80E046F94
:1008000081940F0E000178153009C96EC7A0FED77C
:10081000C950DF6E77C0C9FFC7A0FED7C950DF6ED1
:10082000818481968196819681860DD06639F00B00
:10083000006E0F0E81140010816E0401056BC80E4E
:10084000046F01D06C81E552E552E7CFD9FF120069
:10085000180E00017515100A1AE0180A17E0080AA8
:1008600001E016D06F51060A0EE0030A01E00DD038
:1008700070C06EFF6E5001E003D0010E766F02D0A3
:10088000020E766F02D01BD800D002D001D000D06B
:100890001200180E00017515100A0FE0180A0CE07E
:1008A000080A01E00BD00401400E016F880E006FB2
:1008B000056BC80E046F02D001D000D01200D9CF52
:1008C000E6FFE1CFD9FFE652400E0001735D05E27D
:1008D0006F6973C074F0736B03D0400E746F735FF5
:1008E000DF6A00017451DF5C16E271C0F6FF72C06E
:1008F000F7FF712B000E72230800F550E66EDF50F3
:100900000401EA6A0625E96E0751EA22E552E7503A
:10091000EF6EDF2AE6D774C005F4400E0401041917
:10092000400B8809046FE552E552E7CFD9FF12006A
:10093000806A9268010EC26E1A0EC16EAE0EC06E53
:100940000C0E816E010E936E826A946A400EC76E21
:10095000200EC66E16EC00F0030E0001765D03E07B
:1009600025EC00F0F9D7910EB16E7B6B7C6B25EC1A
:1009700000F0A1A206D000017B2B7B5101E17C2B72
:06098000A192F5D7120060
:0A0986002A0EF66E000EF76E000E4A
:10099000F86E00010900F550826F0900F550836F71
:1009A00003E1826701D03DD00900F5507D6F090059
:1009B000F5507E6F0900F5507F6F09000900F55072
:1009C000E96E0900F550EA6E090009000900F550CA
:1009D000806F0900F550816F09000900F6CF84F09F
:1009E000F7CF85F0F8CF86F07DC0F6FF7EC0F7FF29
:1009F0007FC0F8FF0001805302E1815307E0090046
:100A0000F550EE6E8007F8E28107F9D784C0F6FF53
:100A100085C0F7FF86C0F8FF00018207000E835BE8
:040A2000BFD712002A
:0C0A240012011001000000406666050091
:100A300000000102000109021200010100A03209B8
:100A400004000000FF00FF00040309041A034F0024
:100A50006C0069006E00200043006F006C006C00A9
:100A60006500670065002D0355005300420020001B
:100A70004600690072006D00770061007200650039
:100A8000200066006F007200200045004300530004
:100A900013EE00F023EE00F0F86A049CC3EC04F0BF
:080AA00098EC04F0FDD71200F0
:020000040030CA
:0100000020DF
:0100010002FC
:010002003FBE
:010003001EDE
:010005008179
:010006008178
:010008000FE8
:01000900C036
:01000A000FE6
:01000B00E014
:01000C000FE4
:01000D0040B2
:00000001FF
